{
  "rawhex": "010000000136641869ca081e70f394c6948e8af409e18b619df2ed74aa106c1ca29787b96e0100000000ffffffff0200e9a435000000001976a914389ffce9cd9ae88dcc0631e88a821ffdbe9bfe2688acc0832f05000000001976a9147480a33f950689af511e6e84c138dbbd3c3ee41588ac00000000",
  "txdata": {
    "version": 1,
    "vin": [
      {
        "txid": "6eb98797a21c6c10aa74edf29d618be109f48a8e94c694f3701e08ca69186436",
        "vout": 1,
        "scriptSig": "220020a16b5755f7f6f96dbd65f5f0d6ab9418b89af4b1f14a1bb8a09062c35f0dcb54",
        "prevout" : {
          "value": 987654321,
          "scriptPubKey": "a9149993a429037b5d912407a71c252019287b8d27a587"
        },
        "sequence": "ffffffff",
        "witness": []
      }
    ],
    "vout": [
      {
        "value": 900000000,
        "scriptPubKey": "76a914389ffce9cd9ae88dcc0631e88a821ffdbe9bfe2688ac"
      },
      {
        "value": 87000000,
        "scriptPubKey": "76a9147480a33f950689af511e6e84c138dbbd3c3ee41588ac"
      }
    ],
    "locktime": 0
  },
  "hash_vectors": {
    "prevouts": {
      "preimage": "36641869ca081e70f394c6948e8af409e18b619df2ed74aa106c1ca29787b96e01000000",
      "digest": "74afdc312af5183c4198a40ca3c1a275b485496dd3929bca388c4b5e31f7aaa0"
    },
    "sequence": {
      "preimage": "ffffffff",
      "digest": "3bb13029ce7b1f559ef5e747fcac439f1455a2ec7c5f09b72290795e70665044"
    },
    "output_all": {
      "preimage": "00e9a435000000001976a914389ffce9cd9ae88dcc0631e88a821ffdbe9bfe2688acc0832f05000000001976a9147480a33f950689af511e6e84c138dbbd3c3ee41588ac",
      "digest": "bc4d309071414bed932f98832b27b4d76dad7e6c1346f487a8fdbb8eb90307cc"
    },
    "output_single": {
      "preimage": "00e9a435000000001976a914389ffce9cd9ae88dcc0631e88a821ffdbe9bfe2688ac",
      "digest": "9efe0c13a6b16c14a41b04ebe6a63f419bdacb2f8705b494a43063ca3cd4f708"
    }
  },
  "redeemScript": "56210307b8ae49ac90a048e9b53357a2354b3334e9c8bee813ecb98e99a7e07e8c3ba32103b28f0c28bfab54554ae8c658ac5c3e0ce6e79ad336331f78c428dd43eea8449b21034b8113d703413d57761b8b9781957b8c0ac1dfe69f492580ca4195f50376ba4a21033400f6afecb833092a9a21cfdf1ed1376e58c5d1f47de74683123987e967a8f42103a6d48b1131e94ba04d9737d61acdaa1322008af9602b3b14862c07a1789aac162102d8b661b0b3302ee2f162b09e07a55ad5dfbe673a9f01d9f0c19617681024306b56ae",
  "sign_vectors": [
    {
      "label"     : "ALL",
      "hashType"  : "01000000",
      "preimage"  : "0100000074afdc312af5183c4198a40ca3c1a275b485496dd3929bca388c4b5e31f7aaa03bb13029ce7b1f559ef5e747fcac439f1455a2ec7c5f09b72290795e7066504436641869ca081e70f394c6948e8af409e18b619df2ed74aa106c1ca29787b96e01000000cf56210307b8ae49ac90a048e9b53357a2354b3334e9c8bee813ecb98e99a7e07e8c3ba32103b28f0c28bfab54554ae8c658ac5c3e0ce6e79ad336331f78c428dd43eea8449b21034b8113d703413d57761b8b9781957b8c0ac1dfe69f492580ca4195f50376ba4a21033400f6afecb833092a9a21cfdf1ed1376e58c5d1f47de74683123987e967a8f42103a6d48b1131e94ba04d9737d61acdaa1322008af9602b3b14862c07a1789aac162102d8b661b0b3302ee2f162b09e07a55ad5dfbe673a9f01d9f0c19617681024306b56aeb168de3a00000000ffffffffbc4d309071414bed932f98832b27b4d76dad7e6c1346f487a8fdbb8eb90307cc0000000001000000",
      "sigHash"   : "185c0be5263dce5b4bb50a047973c1b6272bfbd0103a89444597dc40b248ee7c",
      "pubkey"    : "0307b8ae49ac90a048e9b53357a2354b3334e9c8bee813ecb98e99a7e07e8c3ba3",
      "seckey"    : "730fff80e1413068a05b57d6a58261f07551163369787f349438ea38ca80fac6",
      "signature" : "304402206ac44d672dac41f9b00e28f4df20c52eeb087207e8d758d76d92c6fab3b73e2b0220367750dbbe19290069cba53d096f44530e4f98acaa594810388cf7409a1870ce01"
    },
    {
      "label"     : "NONE",
      "hashType"  : "02000000",
      "preimage"  : "0100000074afdc312af5183c4198a40ca3c1a275b485496dd3929bca388c4b5e31f7aaa0000000000000000000000000000000000000000000000000000000000000000036641869ca081e70f394c6948e8af409e18b619df2ed74aa106c1ca29787b96e01000000cf56210307b8ae49ac90a048e9b53357a2354b3334e9c8bee813ecb98e99a7e07e8c3ba32103b28f0c28bfab54554ae8c658ac5c3e0ce6e79ad336331f78c428dd43eea8449b21034b8113d703413d57761b8b9781957b8c0ac1dfe69f492580ca4195f50376ba4a21033400f6afecb833092a9a21cfdf1ed1376e58c5d1f47de74683123987e967a8f42103a6d48b1131e94ba04d9737d61acdaa1322008af9602b3b14862c07a1789aac162102d8b661b0b3302ee2f162b09e07a55ad5dfbe673a9f01d9f0c19617681024306b56aeb168de3a00000000ffffffff00000000000000000000000000000000000000000000000000000000000000000000000002000000",
      "sigHash"   : "e9733bc60ea13c95c6527066bb975a2ff29a925e80aa14c213f686cbae5d2f36",
      "pubkey"    : "03b28f0c28bfab54554ae8c658ac5c3e0ce6e79ad336331f78c428dd43eea8449b",
      "seckey"    : "11fa3d25a17cbc22b29c44a484ba552b5a53149d106d3d853e22fdd05a2d8bb3",
      "signature" : "3044022068c7946a43232757cbdf9176f009a928e1cd9a1a8c212f15c1e11ac9f2925d9002205b75f937ff2f9f3c1246e547e54f62e027f64eefa2695578cc6432cdabce271502"
    },
    {
      "label"     : "SINGLE",
      "hashType"  : "03000000",
      "preimage"  : "0100000074afdc312af5183c4198a40ca3c1a275b485496dd3929bca388c4b5e31f7aaa0000000000000000000000000000000000000000000000000000000000000000036641869ca081e70f394c6948e8af409e18b619df2ed74aa106c1ca29787b96e01000000cf56210307b8ae49ac90a048e9b53357a2354b3334e9c8bee813ecb98e99a7e07e8c3ba32103b28f0c28bfab54554ae8c658ac5c3e0ce6e79ad336331f78c428dd43eea8449b21034b8113d703413d57761b8b9781957b8c0ac1dfe69f492580ca4195f50376ba4a21033400f6afecb833092a9a21cfdf1ed1376e58c5d1f47de74683123987e967a8f42103a6d48b1131e94ba04d9737d61acdaa1322008af9602b3b14862c07a1789aac162102d8b661b0b3302ee2f162b09e07a55ad5dfbe673a9f01d9f0c19617681024306b56aeb168de3a00000000ffffffff9efe0c13a6b16c14a41b04ebe6a63f419bdacb2f8705b494a43063ca3cd4f7080000000003000000",
      "sigHash"   : "1e1f1c303dc025bd664acb72e583e933fae4cff9148bf78c157d1e8f78530aea",
      "pubkey"    : "034b8113d703413d57761b8b9781957b8c0ac1dfe69f492580ca4195f50376ba4a",
      "seckey"    : "77bf4141a87d55bdd7f3cd0bdccf6e9e642935fec45f2f30047be7b799120661",
      "signature" : "3044022059ebf56d98010a932cf8ecfec54c48e6139ed6adb0728c09cbe1e4fa0915302e022007cd986c8fa870ff5d2b3a89139c9fe7e499259875357e20fcbb15571c76795403"
    },
    {
      "label"     : "ALL|ANYONECANPAY",
      "hashType"  : "81000000",
      "preimage"  : "010000000000000000000000000000000000000000000000000000000000000000000000000000000000000000000000000000000000000000000000000000000000000036641869ca081e70f394c6948e8af409e18b619df2ed74aa106c1ca29787b96e01000000cf56210307b8ae49ac90a048e9b53357a2354b3334e9c8bee813ecb98e99a7e07e8c3ba32103b28f0c28bfab54554ae8c658ac5c3e0ce6e79ad336331f78c428dd43eea8449b21034b8113d703413d57761b8b9781957b8c0ac1dfe69f492580ca4195f50376ba4a21033400f6afecb833092a9a21cfdf1ed1376e58c5d1f47de74683123987e967a8f42103a6d48b1131e94ba04d9737d61acdaa1322008af9602b3b14862c07a1789aac162102d8b661b0b3302ee2f162b09e07a55ad5dfbe673a9f01d9f0c19617681024306b56aeb168de3a00000000ffffffffbc4d309071414bed932f98832b27b4d76dad7e6c1346f487a8fdbb8eb90307cc0000000081000000",
      "sigHash"   : "2a67f03e63a6a422125878b40b82da593be8d4efaafe88ee528af6e5a9955c6e",
      "pubkey"    : "033400f6afecb833092a9a21cfdf1ed1376e58c5d1f47de74683123987e967a8f4",
      "seckey"    : "14af36970f5025ea3e8b5542c0f8ebe7763e674838d08808896b63c3351ffe49",
      "signature" : "3045022100fbefd94bd0a488d50b79102b5dad4ab6ced30c4069f1eaa69a4b5a763414067e02203156c6a5c9cf88f91265f5a942e96213afae16d83321c8b31bb342142a14d16381"
    },
    {
      "label"     : "NONE|ANYONECANPAY",
      "hashType"  : "82000000",
      "preimage"  : "010000000000000000000000000000000000000000000000000000000000000000000000000000000000000000000000000000000000000000000000000000000000000036641869ca081e70f394c6948e8af409e18b619df2ed74aa106c1ca29787b96e01000000cf56210307b8ae49ac90a048e9b53357a2354b3334e9c8bee813ecb98e99a7e07e8c3ba32103b28f0c28bfab54554ae8c658ac5c3e0ce6e79ad336331f78c428dd43eea8449b21034b8113d703413d57761b8b9781957b8c0ac1dfe69f492580ca4195f50376ba4a21033400f6afecb833092a9a21cfdf1ed1376e58c5d1f47de74683123987e967a8f42103a6d48b1131e94ba04d9737d61acdaa1322008af9602b3b14862c07a1789aac162102d8b661b0b3302ee2f162b09e07a55ad5dfbe673a9f01d9f0c19617681024306b56aeb168de3a00000000ffffffff00000000000000000000000000000000000000000000000000000000000000000000000082000000",
      "sigHash"   : "781ba15f3779d5542ce8ecb5c18716733a5ee42a6f51488ec96154934e2c890a",
      "pubkey"    : "03a6d48b1131e94ba04d9737d61acdaa1322008af9602b3b14862c07a1789aac16",
      "seckey"    : "fe9a95c19eef81dde2b95c1284ef39be497d128e2aa46916fb02d552485e0323",
      "signature" : "3045022100a5263ea0553ba89221984bd7f0b13613db16e7a70c549a86de0cc0444141a407022005c360ef0ae5a5d4f9f2f87a56c1546cc8268cab08c73501d6b3be2e1e1a8a0882"
    },
    {
      "label"     : "SINGLE|ANYONECANPAY",
      "hashType"  : "83000000",
      "preimage"  : "010000000000000000000000000000000000000000000000000000000000000000000000000000000000000000000000000000000000000000000000000000000000000036641869ca081e70f394c6948e8af409e18b619df2ed74aa106c1ca29787b96e01000000cf56210307b8ae49ac90a048e9b53357a2354b3334e9c8bee813ecb98e99a7e07e8c3ba32103b28f0c28bfab54554ae8c658ac5c3e0ce6e79ad336331f78c428dd43eea8449b21034b8113d703413d57761b8b9781957b8c0ac1dfe69f492580ca4195f50376ba4a21033400f6afecb833092a9a21cfdf1ed1376e58c5d1f47de74683123987e967a8f42103a6d48b1131e94ba04d9737d61acdaa1322008af9602b3b14862c07a1789aac162102d8b661b0b3302ee2f162b09e07a55ad5dfbe673a9f01d9f0c19617681024306b56aeb168de3a00000000ffffffff9efe0c13a6b16c14a41b04ebe6a63f419bdacb2f8705b494a43063ca3cd4f7080000000083000000",
      "sigHash"   : "511e8e52ed574121fc1b654970395502128263f62662e076dc6baf05c2e6a99b",
      "pubkey"    : "02d8b661b0b3302ee2f162b09e07a55ad5dfbe673a9f01d9f0c19617681024306b",
      "seckey"    : "428a7aee9f0c2af0cd19af3cf1c78149951ea528726989b2e83e4778d2c3f890",
      "signature" : "30440220525406a1482936d5a21888260dc165497a90a15669636d8edca6b9fe490d309c022032af0c646a34a44d1f4576bf6a4a74b67940f8faa84c7df9abe12a01a11e2b4783"
    }
  ],
  "signedtx": "0100000000010136641869ca081e70f394c6948e8af409e18b619df2ed74aa106c1ca29787b96e0100000023220020a16b5755f7f6f96dbd65f5f0d6ab9418b89af4b1f14a1bb8a09062c35f0dcb54ffffffff0200e9a435000000001976a914389ffce9cd9ae88dcc0631e88a821ffdbe9bfe2688acc0832f05000000001976a9147480a33f950689af511e6e84c138dbbd3c3ee41588ac080047304402206ac44d672dac41f9b00e28f4df20c52eeb087207e8d758d76d92c6fab3b73e2b0220367750dbbe19290069cba53d096f44530e4f98acaa594810388cf7409a1870ce01473044022068c7946a43232757cbdf9176f009a928e1cd9a1a8c212f15c1e11ac9f2925d9002205b75f937ff2f9f3c1246e547e54f62e027f64eefa2695578cc6432cdabce271502473044022059ebf56d98010a932cf8ecfec54c48e6139ed6adb0728c09cbe1e4fa0915302e022007cd986c8fa870ff5d2b3a89139c9fe7e499259875357e20fcbb15571c76795403483045022100fbefd94bd0a488d50b79102b5dad4ab6ced30c4069f1eaa69a4b5a763414067e02203156c6a5c9cf88f91265f5a942e96213afae16d83321c8b31bb342142a14d16381483045022100a5263ea0553ba89221984bd7f0b13613db16e7a70c549a86de0cc0444141a407022005c360ef0ae5a5d4f9f2f87a56c1546cc8268cab08c73501d6b3be2e1e1a8a08824730440220525406a1482936d5a21888260dc165497a90a15669636d8edca6b9fe490d309c022032af0c646a34a44d1f4576bf6a4a74b67940f8faa84c7df9abe12a01a11e2b4783cf56210307b8ae49ac90a048e9b53357a2354b3334e9c8bee813ecb98e99a7e07e8c3ba32103b28f0c28bfab54554ae8c658ac5c3e0ce6e79ad336331f78c428dd43eea8449b21034b8113d703413d57761b8b9781957b8c0ac1dfe69f492580ca4195f50376ba4a21033400f6afecb833092a9a21cfdf1ed1376e58c5d1f47de74683123987e967a8f42103a6d48b1131e94ba04d9737d61acdaa1322008af9602b3b14862c07a1789aac162102d8b661b0b3302ee2f162b09e07a55ad5dfbe673a9f01d9f0c19617681024306b56ae00000000"
}