{
  "tx": {
    "txid": "3335ffae0df20c5407e8de12b49405c8e912371f00fe4132bfaf95ad49c40243",
    "hash": "3335ffae0df20c5407e8de12b49405c8e912371f00fe4132bfaf95ad49c40243",
    "version": 1,
    "vin": [
      {
        "prevTxid": "9f96ade4b41d5433f4eda31e1738ec2b36f6e7d1420d94a6af99801a88f7f7ff",
        "prevOut": 0,
        "scriptSig": "",
        "sequence": 4294967278
      },
      {
        "prevTxid": "8ac60eb9575db5b2d987e29f301b5b819ea83a5c6579d282d189cc04b8e151ef",
        "prevOut": 1,
        "scriptSig": "",
        "sequence": 4294967295
      }
    ],
    "vout": [
      {
        "value": 112340000,
        "scriptPubKey": "76a9148280b37df378db99f66f85c95a783a76ac7a6d5988ac"
      },
      {
        "value": 223450000,
        "scriptPubKey": "76a9143bde42dbee7e4dbe6a21b2d50ce2f0167faa815988ac"
      }
    ],
    "locktime": 17,
    "size": 160,
    "weight": 640,
    "vsize": 160,
    "hex": "0100000002fff7f7881a8099afa6940d42d1e7f6362bec38171ea3edf433541db4e4ad969f0000000000eeffffffef51e1b804cc89d182d279655c3aa89e815b1b309fe287d9b2b55d57b90ec68a0100000000ffffffff02202cb206000000001976a9148280b37df378db99f66f85c95a783a76ac7a6d5988ac9093510d000000001976a9143bde42dbee7e4dbe6a21b2d50ce2f0167faa815988ac11000000"
  },
  "sign": {
    "sigHash" : {
      "idx"        : 1,
      "prevAmt"    : 600000000,
      "script"     : "1976a9141d0f172a0ecb48aee1be1f2687d2963ae33f71a188ac",
      "sigflag"    : "ALL",
      "preImage"   : "0100000096b827c8483d4e9b96712b6713a7b68d6e8003a781feba36c31143470b4efd3752b0a642eea2fb7ae638c36f6252b6750293dbe574a806984b8e4d8548339a3bef51e1b804cc89d182d279655c3aa89e815b1b309fe287d9b2b55d57b90ec68a010000001976a9141d0f172a0ecb48aee1be1f2687d2963ae33f71a188ac0046c32300000000ffffffff863ef3e1a92afbfdb97f31ad0fc7683ee943e9abcf2501590ff8f6551f47e5e51100000001000000",
      "hash"       : "c37af31116d1b27caf68aae9e3ac82f1477929014d5b917657d0eb49478cb670",
      "publicKey"  : "025476c2e83188368da1ff3e292e7acafcdb3566bb0ad253f62fc70f07aeee6357",
      "privateKey" : "619c335025c7f4012e556c2a58b2506e30b8511b53ade95ea316fd8c3286feb9",
      "signature"  : "304402203609e17b84f6a7d30c80bfa610b5b4542f32a8a0d5447a12fb1366d7f01cc44a0220573a954c4518331561406f90300e8f3358f51928d43c212a8caed02de67eebee",
      "signedHex"  : "01000000000102fff7f7881a8099afa6940d42d1e7f6362bec38171ea3edf433541db4e4ad969f00000000494830450221008b9d1dc26ba6a9cb62127b02742fa9d754cd3bebf337f7a55d114c8e5cdd30be022040529b194ba3f9281a99f2b1c0a19c0489bc22ede944ccf4ecbab4cc618ef3ed01eeffffffef51e1b804cc89d182d279655c3aa89e815b1b309fe287d9b2b55d57b90ec68a0100000000ffffffff02202cb206000000001976a9148280b37df378db99f66f85c95a783a76ac7a6d5988ac9093510d000000001976a9143bde42dbee7e4dbe6a21b2d50ce2f0167faa815988ac000247304402203609e17b84f6a7d30c80bfa610b5b4542f32a8a0d5447a12fb1366d7f01cc44a0220573a954c4518331561406f90300e8f3358f51928d43c212a8caed02de67eebee0121025476c2e83188368da1ff3e292e7acafcdb3566bb0ad253f62fc70f07aeee635711000000"
    },
    "hashPrevouts" : {
      "preImage": "fff7f7881a8099afa6940d42d1e7f6362bec38171ea3edf433541db4e4ad969f00000000ef51e1b804cc89d182d279655c3aa89e815b1b309fe287d9b2b55d57b90ec68a01000000",
      "hash": "96b827c8483d4e9b96712b6713a7b68d6e8003a781feba36c31143470b4efd37"
    },
    "hashSequence": {
      "preImage": "eeffffffffffffff",
      "hash": "52b0a642eea2fb7ae638c36f6252b6750293dbe574a806984b8e4d8548339a3b"
    },
    "hashOutputs": {
      "preImage": "202cb206000000001976a9148280b37df378db99f66f85c95a783a76ac7a6d5988ac9093510d000000001976a9143bde42dbee7e4dbe6a21b2d50ce2f0167faa815988ac",
      "hash": "863ef3e1a92afbfdb97f31ad0fc7683ee943e9abcf2501590ff8f6551f47e5e5"
    }
  }
}
